{
  "contractName": "Customer",
  "abi": [
    {
      "anonymous": false,
      "inputs": [
        {
          "indexed": false,
          "internalType": "string",
          "name": "name",
          "type": "string"
        },
        {
          "indexed": false,
          "internalType": "uint256",
          "name": "price",
          "type": "uint256"
        },
        {
          "indexed": false,
          "internalType": "uint256",
          "name": "sub",
          "type": "uint256"
        },
        {
          "indexed": false,
          "internalType": "uint256",
          "name": "cartItemsCount",
          "type": "uint256"
        }
      ],
      "name": "addItemToCartEvent",
      "type": "event"
    },
    {
      "anonymous": false,
      "inputs": [
        {
          "indexed": false,
          "internalType": "string",
          "name": "name",
          "type": "string"
        },
        {
          "indexed": false,
          "internalType": "string",
          "name": "userAddress",
          "type": "string"
        },
        {
          "indexed": false,
          "internalType": "uint256",
          "name": "subtotal",
          "type": "uint256"
        },
        {
          "indexed": false,
          "internalType": "uint256",
          "name": "payment",
          "type": "uint256"
        },
        {
          "indexed": false,
          "internalType": "uint256",
          "name": "deliveryDate",
          "type": "uint256"
        }
      ],
      "name": "checkoutEvent",
      "type": "event"
    },
    {
      "constant": true,
      "inputs": [
        {
          "internalType": "address",
          "name": "",
          "type": "address"
        },
        {
          "internalType": "uint256",
          "name": "",
          "type": "uint256"
        }
      ],
      "name": "cart",
      "outputs": [
        {
          "internalType": "uint256",
          "name": "wineId",
          "type": "uint256"
        },
        {
          "internalType": "uint256",
          "name": "wineQuantity",
          "type": "uint256"
        },
        {
          "internalType": "uint256",
          "name": "winePrice",
          "type": "uint256"
        },
        {
          "internalType": "uint256",
          "name": "subTotal",
          "type": "uint256"
        }
      ],
      "payable": false,
      "stateMutability": "view",
      "type": "function"
    },
    {
      "constant": true,
      "inputs": [],
      "name": "cartItemCount",
      "outputs": [
        {
          "internalType": "uint256",
          "name": "",
          "type": "uint256"
        }
      ],
      "payable": false,
      "stateMutability": "view",
      "type": "function"
    },
    {
      "constant": false,
      "inputs": [
        {
          "internalType": "uint256",
          "name": "_wine_item_id",
          "type": "uint256"
        }
      ],
      "name": "addToCart",
      "outputs": [
        {
          "internalType": "bool",
          "name": "",
          "type": "bool"
        }
      ],
      "payable": false,
      "stateMutability": "nonpayable",
      "type": "function"
    },
    {
      "constant": false,
      "inputs": [
        {
          "internalType": "string",
          "name": "_user_name",
          "type": "string"
        },
        {
          "internalType": "string",
          "name": "_user_address",
          "type": "string"
        },
        {
          "internalType": "uint256",
          "name": "_payment_method",
          "type": "uint256"
        }
      ],
      "name": "CheckOutCart",
      "outputs": [],
      "payable": false,
      "stateMutability": "nonpayable",
      "type": "function"
    },
    {
      "constant": false,
      "inputs": [],
      "name": "emptyCart",
      "outputs": [],
      "payable": false,
      "stateMutability": "nonpayable",
      "type": "function"
    }
  ],
  "bytecode": "0x608060405234801561001057600080fd5b50610b29806100206000396000f3fe608060405234801561001057600080fd5b50600436106100575760003560e01c80631d9fdc551461005c5780633ab3150e14610078578063702742b014610096578063a0c8c156146100c6578063b564eaaa146100d0575b600080fd5b610076600480360361007191908101906106f1565b610103565b005b610080610249565b60405161008d9190610948565b60405180910390f35b6100b060048036036100ab91908101906107d7565b61024f565b6040516100bd9190610880565b60405180910390f35b6100ce6104ac565b005b6100ea60048036036100e591908101906106b5565b6104f9565b6040516100fa9493929190610963565b60405180910390f35b6000600160009054906101000a900473ffffffffffffffffffffffffffffffffffffffff1673ffffffffffffffffffffffffffffffffffffffff1663dfab317a6040518163ffffffff1660e01b815260040160206040518083038186803b15801561016d57600080fd5b505afa158015610181573d6000803e3d6000fd5b505050506040513d601f19601f820116820180604052506101a59190810190610800565b90507f7b906e584848f71d1283925defdcacbbebc0bb7414e23baf68bb8a398bfbf7a58484600260003373ffffffffffffffffffffffffffffffffffffffff1673ffffffffffffffffffffffffffffffffffffffff1681526020019081526020016000206003548154811061021657fe5b906000526020600020906004020160030154858560405161023b95949392919061089b565b60405180910390a150505050565b60035481565b6000600560035410156104a257600360008154809291906001019190505550610276610543565b6060600080600160009054906101000a900473ffffffffffffffffffffffffffffffffffffffff1673ffffffffffffffffffffffffffffffffffffffff1663de49745b876040518263ffffffff1660e01b81526004016102d69190610948565b60006040518083038186803b1580156102ee57600080fd5b505afa158015610302573d6000803e3d6000fd5b505050506040513d6000823e3d601f19601f8201168201806040525061032b9190810190610770565b9250925092508584600001818152505081846040018181525050808460200181815250508360400151846060018181510191508181525050600260003373ffffffffffffffffffffffffffffffffffffffff1673ffffffffffffffffffffffffffffffffffffffff1681526020019081526020016000208490806001815401808255809150509060018203906000526020600020906004020160009091929091909150600082015181600001556020820151816001015560408201518160020155606082015181600301555050507fb1c91bec4229db67331e0fa09df55891c62724de47ca7bfb64d5dc9b45621c978383600260003373ffffffffffffffffffffffffffffffffffffffff1673ffffffffffffffffffffffffffffffffffffffff1681526020019081526020016000206003548154811061046857fe5b90600052602060002090600402016003015460035460405161048d94939291906108fc565b60405180910390a160019450505050506104a7565b600090505b919050565b600260003373ffffffffffffffffffffffffffffffffffffffff1673ffffffffffffffffffffffffffffffffffffffff16815260200190815260200160002060006104f7919061056b565b565b6002602052816000526040600020818154811061051257fe5b9060005260206000209060040201600091509150508060000154908060010154908060020154908060030154905084565b6040518060800160405280600081526020016000815260200160008152602001600081525090565b508054600082556004029060005260206000209081019061058c919061058f565b50565b6105cb91905b808211156105c75760008082016000905560018201600090556002820160009055600382016000905550600401610595565b5090565b90565b6000813590506105dd81610ab8565b92915050565b600082601f8301126105f457600080fd5b8135610607610602826109d5565b6109a8565b9150808252602083016020830185838301111561062357600080fd5b61062e838284610a65565b50505092915050565b600082601f83011261064857600080fd5b815161065b610656826109d5565b6109a8565b9150808252602083016020830185838301111561067757600080fd5b610682838284610a74565b50505092915050565b60008135905061069a81610acf565b92915050565b6000815190506106af81610acf565b92915050565b600080604083850312156106c857600080fd5b60006106d6858286016105ce565b92505060206106e78582860161068b565b9150509250929050565b60008060006060848603121561070657600080fd5b600084013567ffffffffffffffff81111561072057600080fd5b61072c868287016105e3565b935050602084013567ffffffffffffffff81111561074957600080fd5b610755868287016105e3565b92505060406107668682870161068b565b9150509250925092565b60008060006060848603121561078557600080fd5b600084015167ffffffffffffffff81111561079f57600080fd5b6107ab86828701610637565b93505060206107bc868287016106a0565b92505060406107cd868287016106a0565b9150509250925092565b6000602082840312156107e957600080fd5b60006107f78482850161068b565b91505092915050565b60006020828403121561081257600080fd5b6000610820848285016106a0565b91505092915050565b61083281610a2f565b82525050565b600061084382610a01565b61084d8185610a0c565b935061085d818560208601610a74565b61086681610aa7565b840191505092915050565b61087a81610a5b565b82525050565b60006020820190506108956000830184610829565b92915050565b600060a08201905081810360008301526108b58188610838565b905081810360208301526108c98187610838565b90506108d86040830186610871565b6108e56060830185610871565b6108f26080830184610871565b9695505050505050565b600060808201905081810360008301526109168187610838565b90506109256020830186610871565b6109326040830185610871565b61093f6060830184610871565b95945050505050565b600060208201905061095d6000830184610871565b92915050565b60006080820190506109786000830187610871565b6109856020830186610871565b6109926040830185610871565b61099f6060830184610871565b95945050505050565b6000604051905081810181811067ffffffffffffffff821117156109cb57600080fd5b8060405250919050565b600067ffffffffffffffff8211156109ec57600080fd5b601f19601f8301169050602081019050919050565b600081519050919050565b600082825260208201905092915050565b6000610a2882610a3b565b9050919050565b60008115159050919050565b600073ffffffffffffffffffffffffffffffffffffffff82169050919050565b6000819050919050565b82818337600083830152505050565b60005b83811015610a92578082015181840152602081019050610a77565b83811115610aa1576000848401525b50505050565b6000601f19601f8301169050919050565b610ac181610a1d565b8114610acc57600080fd5b50565b610ad881610a5b565b8114610ae357600080fd5b5056fea365627a7a72315820971f36dc3c688f1bf7f048d9dd5c12f549d8b31870fa1e2b443e2b979f9fe46b6c6578706572696d656e74616cf564736f6c63430005100040",
  "source": "// SPDX-License-Identifier: MIT\r\npragma solidity >=0.4.21 <0.7.0;\r\npragma experimental ABIEncoderV2;\r\n\r\n\r\nimport \"./Shop.sol\";\r\nimport \"./Ownable.sol\";\r\n\r\ncontract Customer{\r\n\r\n    address owner;\r\n\r\n    //@dev modifer allowing only owner of contract\r\n    modifier onlyOwner(){\r\n        require(msg.sender == owner,   \"not working\");\r\n        _;\r\n    }\r\n\r\n    //@dev temporary cart struct\r\n    struct WineCart{\r\n        uint wineId;\r\n        uint wineQuantity;\r\n        uint winePrice;\r\n        uint subTotal;\r\n    }\r\n\r\n    Shop shop;\r\n    mapping(address => WineCart[]) public cart;\r\n    // mapping(address => uint) public subtotal;\r\n\r\n    //Variable's declaration -\r\n    uint public cartItemCount;\r\n\r\n    //@dev Event triggers after new item added to cart\r\n    event addItemToCartEvent(string name, uint price, uint sub, uint cartItemsCount);\r\n    event checkoutEvent (string name, string userAddress, uint subtotal,  uint payment, uint deliveryDate);\r\n\r\n    function addToCart(uint _wine_item_id) public  returns (bool){\r\n        if(cartItemCount<5)\r\n        {\r\n            cartItemCount++;\r\n            WineCart memory newCartItem;\r\n\r\n            (string memory wineName, uint winePrice, uint wineQty) = shop.getWines(_wine_item_id);\r\n\r\n            newCartItem.wineId = _wine_item_id;\r\n            newCartItem.winePrice = winePrice;\r\n            newCartItem.wineQuantity = wineQty;\r\n            newCartItem.subTotal += newCartItem.winePrice;\r\n            cart[msg.sender].push(newCartItem);\r\n\r\n            emit addItemToCartEvent(wineName, winePrice, cart[msg.sender][cartItemCount].subTotal, cartItemCount);\r\n\r\n            return true;\r\n        }\r\n        else\r\n            return false;\r\n    }\r\n\r\n     //Customer cart delete item func.\r\n\r\n    //Can't we associate the user's details with his wallet address?\r\n    function CheckOutCart(string memory _user_name, string memory _user_address, uint _payment_method) public {\r\n        //Add new_subtotal = discount() to this function ~\r\n        uint delivery_date = shop.getDeliveryDate();\r\n        emit checkoutEvent(_user_name, _user_address, cart[msg.sender][cartItemCount].subTotal, _payment_method, delivery_date);\r\n        //Remove the wine from shop by ID ~\r\n    }\r\n\r\n    function emptyCart() public {\r\n        delete cart[msg.sender];\r\n    }\r\n}",
  "sourcePath": "/mnt/c/Users/gulpr/OneDrive/Desktop/Sprint 24/sample_app/contracts/Customer.sol",
  "compiler": {
    "name": "solc",
    "version": "0.5.16+commit.9c3226ce.Emscripten.clang"
  },
  "schemaVersion": "3.2.3",
  "updatedAt": "2020-07-27T17:59:19.956Z",
  "networkType": "ethereum",
  "devdoc": {
    "methods": {}
  },
  "userdoc": {
    "methods": {}
  }
}