{
  "contractName": "Shop",
  "abi": [
    {
      "inputs": [],
      "payable": false,
      "stateMutability": "nonpayable",
      "type": "constructor"
    },
    {
      "constant": true,
      "inputs": [],
      "name": "wineCount",
      "outputs": [
        {
          "internalType": "uint256",
          "name": "",
          "type": "uint256"
        }
      ],
      "payable": false,
      "stateMutability": "view",
      "type": "function"
    },
    {
      "constant": true,
      "inputs": [
        {
          "internalType": "uint256",
          "name": "",
          "type": "uint256"
        }
      ],
      "name": "wines",
      "outputs": [
        {
          "internalType": "uint256",
          "name": "vin_ID",
          "type": "uint256"
        },
        {
          "internalType": "string",
          "name": "vin_Name",
          "type": "string"
        },
        {
          "internalType": "string",
          "name": "vin_Des",
          "type": "string"
        },
        {
          "internalType": "uint256",
          "name": "vin_Price",
          "type": "uint256"
        },
        {
          "internalType": "uint256",
          "name": "inv_Qty",
          "type": "uint256"
        }
      ],
      "payable": false,
      "stateMutability": "view",
      "type": "function"
    },
    {
      "constant": true,
      "inputs": [
        {
          "internalType": "uint256",
          "name": "_wineIndex",
          "type": "uint256"
        }
      ],
      "name": "getWines",
      "outputs": [
        {
          "internalType": "string",
          "name": "",
          "type": "string"
        },
        {
          "internalType": "uint256",
          "name": "",
          "type": "uint256"
        },
        {
          "internalType": "uint256",
          "name": "",
          "type": "uint256"
        }
      ],
      "payable": false,
      "stateMutability": "view",
      "type": "function"
    },
    {
      "constant": true,
      "inputs": [],
      "name": "getDeliveryDate",
      "outputs": [
        {
          "internalType": "uint256",
          "name": "",
          "type": "uint256"
        }
      ],
      "payable": false,
      "stateMutability": "pure",
      "type": "function"
    }
  ],
  "bytecode": "0x608060405234801561001057600080fd5b50336000806101000a81548173ffffffffffffffffffffffffffffffffffffffff021916908373ffffffffffffffffffffffffffffffffffffffff1602179055506100d06040518060400160405280600f81526020017f4475636b686f726e204d65726c6f7400000000000000000000000000000000008152506040518060400160405280602081526020017f4e6170612056616c6c65792054687265652050616c6d732056696e657961726481525060016103e861023960201b60201c565b506101336040518060400160405280600881526020017f4b2053797261682000000000000000000000000000000000000000000000000081525060405180606001604052806023815260200161094e6023913960026105dc61023960201b60201c565b506101b36040518060400160405280600f81526020017f4368c3a27465617520436f7574657400000000000000000000000000000000008152506040518060400160405280600681526020017f426172736163000000000000000000000000000000000000000000000000000081525060026107d061023960201b60201c565b506102336040518060400160405280601081526020017f436173616e6f7661206469204e657269000000000000000000000000000000008152506040518060400160405280601681526020017f4272756e656c6c6f206469204d6f6e74616c63696e6f0000000000000000000081525060016107d061023960201b60201c565b506103ac565b6000600a60025410156102fa576002600081548092919060010191905055506040518060a001604052806002548152602001868152602001858152602001848152602001838152506001600060025481526020019081526020016000206000820151816000015560208201518160010190805190602001906102bc929190610307565b5060408201518160020190805190602001906102d9929190610307565b506060820151816003015560808201518160040155905050600190506102ff565b600090505b949350505050565b828054600181600116156101000203166002900490600052602060002090601f016020900481019282601f1061034857805160ff1916838001178555610376565b82800160010185558215610376579182015b8281111561037557825182559160200191906001019061035a565b5b5090506103839190610387565b5090565b6103a991905b808211156103a557600081600090555060010161038d565b5090565b90565b610593806103bb6000396000f3fe608060405234801561001057600080fd5b506004361061004c5760003560e01c806313351db3146100515780636b9aac9614610085578063de49745b146100a3578063dfab317a146100d5575b600080fd5b61006b60048036036100669190810190610360565b6100f3565b60405161007c959493929190610463565b60405180910390f35b61008d610259565b60405161009a9190610448565b60405180910390f35b6100bd60048036036100b89190810190610360565b61025f565b6040516100cc9392919061040a565b60405180910390f35b6100dd610342565b6040516100ea9190610448565b60405180910390f35b6001602052806000526040600020600091509050806000015490806001018054600181600116156101000203166002900480601f0160208091040260200160405190810160405280929190818152602001828054600181600116156101000203166002900480156101a55780601f1061017a576101008083540402835291602001916101a5565b820191906000526020600020905b81548152906001019060200180831161018857829003601f168201915b505050505090806002018054600181600116156101000203166002900480601f0160208091040260200160405190810160405280929190818152602001828054600181600116156101000203166002900480156102435780601f1061021857610100808354040283529160200191610243565b820191906000526020600020905b81548152906001019060200180831161022657829003601f168201915b5050505050908060030154908060040154905085565b60025481565b6060600080600a84101561033a5760006001600086815260200190815260200160002090508060010181600301548260040154828054600181600116156101000203166002900480601f0160208091040260200160405190810160405280929190818152602001828054600181600116156101000203166002900480156103275780601f106102fc57610100808354040283529160200191610327565b820191906000526020600020905b81548152906001019060200180831161030a57829003601f168201915b505050505092509350935093505061033b565b5b9193909250565b60006007905090565b60008135905061035a81610539565b92915050565b60006020828403121561037257600080fd5b60006103808482850161034b565b91505092915050565b6000610394826104cf565b61039e81856104da565b93506103ae8185602086016104f5565b6103b781610528565b840191505092915050565b60006103cd826104c4565b6103d781856104da565b93506103e78185602086016104f5565b6103f081610528565b840191505092915050565b610404816104eb565b82525050565b600060608201905081810360008301526104248186610389565b905061043360208301856103fb565b61044060408301846103fb565b949350505050565b600060208201905061045d60008301846103fb565b92915050565b600060a08201905061047860008301886103fb565b818103602083015261048a81876103c2565b9050818103604083015261049e81866103c2565b90506104ad60608301856103fb565b6104ba60808301846103fb565b9695505050505050565b600081519050919050565b600081519050919050565b600082825260208201905092915050565b6000819050919050565b60005b838110156105135780820151818401526020810190506104f8565b83811115610522576000848401525b50505050565b6000601f19601f8301169050919050565b610542816104eb565b811461054d57600080fd5b5056fea365627a7a723158205f5f3e7f843a95593cb23d81918b930ee80d1637999f0ef86ebb92b2ec94c3476c6578706572696d656e74616cf564736f6c6343000510004057616c6c612057616c6c612056616c6c657920506f7765726c696e6520457374617465",
  "source": "// SPDX-License-Identifier: MIT\r\npragma solidity >=0.4.21 <0.7.0;\r\npragma experimental ABIEncoderV2;\r\n\r\ncontract Shop{\r\n\r\n    address owner;\r\n\r\n    //@dev modifer allowing only owner of contract\r\n    modifier onlyOwner(){\r\n        require(msg.sender == owner,   \"not working\");\r\n        _;\r\n    }\r\n\r\n    //Data Structure -\r\n    //@dev creating a struct for wine inventory\r\n    struct WineList{\r\n        uint vin_ID;\r\n        string vin_Name;\r\n        string vin_Des;\r\n        uint vin_Price;\r\n        uint inv_Qty;\r\n    }\r\n\r\n    //@dev temporary invoice struct\r\n    // struct Invoice{\r\n    //     uint invoiceid;\r\n    //     uint cartid;\r\n    //     uint discount;\r\n    //     uint total_price;\r\n    // }\r\n\r\n    //Mapping -\r\n    mapping (uint => WineList) public wines;\r\n\r\n    //Variable definitions -\r\n    uint public wineCount;\r\n\r\n    constructor() public {\r\n        owner = msg.sender;\r\n        //@dev List of Wines available in the shop:\r\n        addWineItem(\"Duckhorn Merlot\", \"Napa Valley Three Palms Vineyard\",1 wei,1000);\r\n        addWineItem(\"K Syrah \", \"Walla Walla Valley Powerline Estate\",2 wei,1500);\r\n        addWineItem(\"Château Coutet\", \"Barsac\",2 wei,2000);\r\n        addWineItem(\"Casanova di Neri\", \"Brunello di Montalcino\",1 wei,2000);\r\n    }\r\n\r\n    function addWineItem(string memory _name, string memory _des, uint _price, uint _qty) private returns (bool){\r\n        if(wineCount < 10){\r\n            wineCount++;\r\n            wines[wineCount] = WineList(wineCount, _name, _des, _price, _qty);\r\n            return true;\r\n        }\r\n        else{\r\n            return false;\r\n        }\r\n    }\r\n\r\n    function getWines(uint _wineIndex) public view returns (string memory, uint ,uint){\r\n        if(_wineIndex < 10){\r\n            WineList storage temp = wines[_wineIndex];\r\n            return (temp.vin_Name, temp.vin_Price, temp.inv_Qty);\r\n        }\r\n    }\r\n\r\n    function getDeliveryDate() public pure returns (uint){\r\n        //Date returned based on product availability.\r\n        return 7;\r\n    }\r\n\r\n    function decrementQuantity(uint _wineIndex) private {\r\n        wines[_wineIndex].inv_Qty--;\r\n    }\r\n}",
  "sourcePath": "/mnt/c/Users/gulpr/OneDrive/Desktop/Sprint 24/sample_app/contracts/Shop.sol",
  "compiler": {
    "name": "solc",
    "version": "0.5.16+commit.9c3226ce.Emscripten.clang"
  },
  "schemaVersion": "3.2.3",
  "updatedAt": "2020-07-27T17:59:19.936Z",
  "networkType": "ethereum",
  "devdoc": {
    "methods": {}
  },
  "userdoc": {
    "methods": {}
  }
}